{
  "_format": "hh-sol-artifact-1",
  "contractName": "poll",
  "sourceName": "contracts/poll.sol",
  "abi": [
    {
      "inputs": [],
      "stateMutability": "nonpayable",
      "type": "constructor"
    },
    {
      "inputs": [
        {
          "internalType": "string",
          "name": "_name",
          "type": "string"
        }
      ],
      "name": "addToCandidates",
      "outputs": [],
      "stateMutability": "nonpayable",
      "type": "function"
    },
    {
      "inputs": [
        {
          "internalType": "uint256",
          "name": "",
          "type": "uint256"
        }
      ],
      "name": "candidate",
      "outputs": [
        {
          "internalType": "uint256",
          "name": "id",
          "type": "uint256"
        },
        {
          "internalType": "string",
          "name": "name",
          "type": "string"
        }
      ],
      "stateMutability": "view",
      "type": "function"
    },
    {
      "inputs": [],
      "name": "candidatesCount",
      "outputs": [
        {
          "internalType": "uint256",
          "name": "",
          "type": "uint256"
        }
      ],
      "stateMutability": "view",
      "type": "function"
    },
    {
      "inputs": [],
      "name": "getAllCandidates",
      "outputs": [
        {
          "components": [
            {
              "internalType": "uint256",
              "name": "id",
              "type": "uint256"
            },
            {
              "internalType": "string",
              "name": "name",
              "type": "string"
            }
          ],
          "internalType": "struct poll.candidates[]",
          "name": "",
          "type": "tuple[]"
        }
      ],
      "stateMutability": "view",
      "type": "function"
    },
    {
      "inputs": [],
      "name": "getAllVotes",
      "outputs": [
        {
          "internalType": "uint256",
          "name": "",
          "type": "uint256"
        }
      ],
      "stateMutability": "view",
      "type": "function"
    },
    {
      "inputs": [],
      "name": "getVotes",
      "outputs": [
        {
          "internalType": "uint256[]",
          "name": "",
          "type": "uint256[]"
        }
      ],
      "stateMutability": "view",
      "type": "function"
    },
    {
      "inputs": [],
      "name": "manager",
      "outputs": [
        {
          "internalType": "address",
          "name": "",
          "type": "address"
        }
      ],
      "stateMutability": "view",
      "type": "function"
    },
    {
      "inputs": [
        {
          "internalType": "uint256",
          "name": "_candidatesId",
          "type": "uint256"
        }
      ],
      "name": "vote",
      "outputs": [],
      "stateMutability": "nonpayable",
      "type": "function"
    },
    {
      "inputs": [
        {
          "internalType": "address",
          "name": "",
          "type": "address"
        }
      ],
      "name": "voted",
      "outputs": [
        {
          "internalType": "bool",
          "name": "",
          "type": "bool"
        }
      ],
      "stateMutability": "view",
      "type": "function"
    }
  ],
  "bytecode": "0x608060405234801561001057600080fd5b5033600660006101000a81548173ffffffffffffffffffffffffffffffffffffffff021916908373ffffffffffffffffffffffffffffffffffffffff160217905550610f78806100616000396000f3fe608060405234801561001057600080fd5b50600436106100935760003560e01c80632e6997fe116100665780632e6997fe14610121578063481c6a751461013f578063851b6ef21461015d5780639b60f2ff1461017b578063aec2ccae1461019757610093565b80630121b93f146100985780630dc96015146100b45780631de43c4b146100d25780632d35a8a214610103575b600080fd5b6100b260048036038101906100ad919061089b565b6101c7565b005b6100bc610320565b6040516100c99190610b31565b60405180910390f35b6100ec60048036038101906100e7919061089b565b610378565b6040516100fa929190610bc9565b60405180910390f35b61010b610424565b6040516101189190610bae565b60405180910390f35b61012961042a565b6040516101369190610b0f565b60405180910390f35b610147610525565b6040516101549190610af4565b60405180910390f35b61016561054b565b6040516101729190610bae565b60405180910390f35b6101956004803603810190610190919061085a565b610554565b005b6101b160048036038101906101ac9190610831565b6106dc565b6040516101be9190610b53565b60405180910390f35b600460003373ffffffffffffffffffffffffffffffffffffffff1673ffffffffffffffffffffffffffffffffffffffff16815260200190815260200160002060009054906101000a900460ff1615610254576040517f08c379a000000000000000000000000000000000000000000000000000000000815260040161024b90610b6e565b60405180910390fd5b6001600460003373ffffffffffffffffffffffffffffffffffffffff1673ffffffffffffffffffffffffffffffffffffffff16815260200190815260200160002060006101000a81548160ff021916908315150217905550600181815481106102e6577f4e487b7100000000000000000000000000000000000000000000000000000000600052603260045260246000fd5b90600052602060002001600081548092919061030190610ddb565b919050555060008081548092919061031890610ddb565b919050555050565b6060600180548060200260200160405190810160405280929190818152602001828054801561036e57602002820191906000526020600020905b81548152602001906001019080831161035a575b5050505050905090565b60036020528060005260406000206000915090508060000154908060010180546103a190610d78565b80601f01602080910402602001604051908101604052809291908181526020018280546103cd90610d78565b801561041a5780601f106103ef5761010080835404028352916020019161041a565b820191906000526020600020905b8154815290600101906020018083116103fd57829003601f168201915b5050505050905082565b60055481565b60606002805480602002602001604051908101604052809291908181526020016000905b8282101561051c57838290600052602060002090600202016040518060400160405290816000820154815260200160018201805461048b90610d78565b80601f01602080910402602001604051908101604052809291908181526020018280546104b790610d78565b80156105045780601f106104d957610100808354040283529160200191610504565b820191906000526020600020905b8154815290600101906020018083116104e757829003601f168201915b5050505050815250508152602001906001019061044e565b50505050905090565b600660009054906101000a900473ffffffffffffffffffffffffffffffffffffffff1681565b60008054905090565b600660009054906101000a900473ffffffffffffffffffffffffffffffffffffffff1673ffffffffffffffffffffffffffffffffffffffff163373ffffffffffffffffffffffffffffffffffffffff16146105e4576040517f08c379a00000000000000000000000000000000000000000000000000000000081526004016105db90610b8e565b60405180910390fd5b60405180604001604052806005548152602001828152506003600060055481526020019081526020016000206000820151816000015560208201518160010190805190602001906106369291906106fc565b509050506002604051806040016040528060055481526020018381525090806001815401808255809150506001900390600052602060002090600202016000909190919091506000820151816000015560208201518160010190805190602001906106a29291906106fc565b50505060018081600181540180825580915050039060005260206000205050600560008154809291906106d490610ddb565b919050555050565b60046020528060005260406000206000915054906101000a900460ff1681565b82805461070890610d78565b90600052602060002090601f01602090048101928261072a5760008555610771565b82601f1061074357805160ff1916838001178555610771565b82800160010185558215610771579182015b82811115610770578251825591602001919060010190610755565b5b50905061077e9190610782565b5090565b5b8082111561079b576000816000905550600101610783565b5090565b60006107b26107ad84610c1e565b610bf9565b9050828152602081018484840111156107ca57600080fd5b6107d5848285610d36565b509392505050565b6000813590506107ec81610f14565b92915050565b600082601f83011261080357600080fd5b813561081384826020860161079f565b91505092915050565b60008135905061082b81610f2b565b92915050565b60006020828403121561084357600080fd5b6000610851848285016107dd565b91505092915050565b60006020828403121561086c57600080fd5b600082013567ffffffffffffffff81111561088657600080fd5b610892848285016107f2565b91505092915050565b6000602082840312156108ad57600080fd5b60006108bb8482850161081c565b91505092915050565b60006108d08383610a99565b905092915050565b60006108e48383610ad6565b60208301905092915050565b6108f981610cee565b82525050565b600061090a82610c6f565b6109148185610caa565b93508360208202850161092685610c4f565b8060005b85811015610962578484038952815161094385826108c4565b945061094e83610c90565b925060208a0199505060018101905061092a565b50829750879550505050505092915050565b600061097f82610c7a565b6109898185610cbb565b935061099483610c5f565b8060005b838110156109c55781516109ac88826108d8565b97506109b783610c9d565b925050600181019050610998565b5085935050505092915050565b6109db81610d00565b82525050565b60006109ec82610c85565b6109f68185610ccc565b9350610a06818560208601610d45565b610a0f81610eb1565b840191505092915050565b6000610a2582610c85565b610a2f8185610cdd565b9350610a3f818560208601610d45565b610a4881610eb1565b840191505092915050565b6000610a60600f83610cdd565b9150610a6b82610ec2565b602082019050919050565b6000610a83601e83610cdd565b9150610a8e82610eeb565b602082019050919050565b6000604083016000830151610ab16000860182610ad6565b5060208301518482036020860152610ac982826109e1565b9150508091505092915050565b610adf81610d2c565b82525050565b610aee81610d2c565b82525050565b6000602082019050610b0960008301846108f0565b92915050565b60006020820190508181036000830152610b2981846108ff565b905092915050565b60006020820190508181036000830152610b4b8184610974565b905092915050565b6000602082019050610b6860008301846109d2565b92915050565b60006020820190508181036000830152610b8781610a53565b9050919050565b60006020820190508181036000830152610ba781610a76565b9050919050565b6000602082019050610bc36000830184610ae5565b92915050565b6000604082019050610bde6000830185610ae5565b8181036020830152610bf08184610a1a565b90509392505050565b6000610c03610c14565b9050610c0f8282610daa565b919050565b6000604051905090565b600067ffffffffffffffff821115610c3957610c38610e82565b5b610c4282610eb1565b9050602081019050919050565b6000819050602082019050919050565b6000819050602082019050919050565b600081519050919050565b600081519050919050565b600081519050919050565b6000602082019050919050565b6000602082019050919050565b600082825260208201905092915050565b600082825260208201905092915050565b600082825260208201905092915050565b600082825260208201905092915050565b6000610cf982610d0c565b9050919050565b60008115159050919050565b600073ffffffffffffffffffffffffffffffffffffffff82169050919050565b6000819050919050565b82818337600083830152505050565b60005b83811015610d63578082015181840152602081019050610d48565b83811115610d72576000848401525b50505050565b60006002820490506001821680610d9057607f821691505b60208210811415610da457610da3610e53565b5b50919050565b610db382610eb1565b810181811067ffffffffffffffff82111715610dd257610dd1610e82565b5b80604052505050565b6000610de682610d2c565b91507fffffffffffffffffffffffffffffffffffffffffffffffffffffffffffffffff821415610e1957610e18610e24565b5b600182019050919050565b7f4e487b7100000000000000000000000000000000000000000000000000000000600052601160045260246000fd5b7f4e487b7100000000000000000000000000000000000000000000000000000000600052602260045260246000fd5b7f4e487b7100000000000000000000000000000000000000000000000000000000600052604160045260246000fd5b6000601f19601f8301169050919050565b7f416c726561647920566f74656421210000000000000000000000000000000000600082015250565b7f4f6e6c79206d616e616765722063616e206164642063616e6469646174650000600082015250565b610f1d81610cee565b8114610f2857600080fd5b50565b610f3481610d2c565b8114610f3f57600080fd5b5056fea26469706673582212206237449149cde0ecc88472b3d95aee1bf7a4c61bf85b0b6fa10afd96743c904164736f6c63430008010033",
  "linkReferences": {},
  "deployedLinkReferences": {}
}